:100000000C94DA050C94F7050C94F7050C94F7059D
:100010000C94F7050C94F7050C94F7050C94E50780
:100020000C94F7050C94F7050C94F7050C94FF0756
:100030000C94F7050C94F7050C94F7050C94F70550
:100040000C94F7050C94F7050C94F7050C94F70540
:100050000C94F70588016801480128010801E800AF
:10006000C800A8008800680000001E0021002100D0
:100070002100FE0000000000000002000400040057
:1000800004000300000000000000DE002100210049
:100090002100DE0000000000000003000400040056
:1000A000040003000000000000000700820082003E
:1000B000C100B9008700000000000000000000003F
:1000C0000700000000000000FC00220011001100E9
:1000D00011002100C2000000010002000400040021
:1000E000040002000100000000001F0011000900D0
:1000F000090009001100E0000000010002000400F6
:1001000004000400020001000000000070004C0028
:100110004200FF004000000000000000000000005E
:1001200000000700000000000000020001000100C4
:1001300001002200DC0000000000020004000400B6
:10014000040002000100000000000C001200810009
:10015000410022001C000000000006000500040011
:10016000040004000400040000000000000002007D
:10017000FF0000000000000000000000000004007C
:100180000700040000000000FC0002008100610084
:10019000190005000200FC00010002000500040037
:1001A0000400040002000100900BCC0AC00A2C0AD3
:1001B00098094C090809CE08BA018803710040006B
:1001C0004100800080008800100060008000010075
:1001D00002000C001000010003004E001C0078001B
:1001E000E000C3009E007800F000E000C000800046
:1001F00000000000020000000000080000000000F5
:100200003000030002000600040008001000200077
:1002100060004000C00000000C0018001800000042
:100220000000000000000000000003003C0000008F
:1002300000000100F70006000F003F007C00F10005
:10024000EE00D800E000D6009C00FF00FF00FE009A
:10025000FC00F800FF00FF00E300BF00FF00FD000E
:10026000FF00FF00FF00FC00FF00FF00FF00FD009B
:10027000BF00FE00C300E000F000FE001F004300CE
:1002800061009600D000F800D9007E001F004100F8
:10029000A1008100100018000600030000002000EB
:1002A0008000C000D0009000410001001100130048
:1002B000830086002E001E001C004C006C0078009D
:1002C0003800B000F100730075006B007A00670021
:1002D0006500C9008A009F0094009A001A00560029
:1002E000300030003000B00020002000200060000E
:1002F000E0004000C00080008100020006000E0007
:100300000B001C0030006000C000800008000000EE
:1003100000000100040008009300E00080000000DD
:10032000C400F900BB00FF00FF00FD00FF00FF005C
:10033000FF00FF00FF00FF00FF00FF00FF00FF00C5
:10034000FF00FF00FF00FF00FF00FF00FF00FF00B5
:10035000FF00FF00FB007D009800E000F800EC00CB
:10036000F6007F002100900058001E000E000100E2
:1003700001000000000048001000000040002000C4
:10038000A000F000F000F100F100F200E200A20095
:10039000A000E400E400E100C10049004800400082
:1003A0005000500050004000A100810082008200F7
:1003B000840088009000A000C000810001000700B8
:1003C000070006000E000C000C001C0009002900AC
:1003D0005A00FE00BC00380070006000E000E00041
:1003E000C000C0008C008000800080002000010060
:1003F000030086000C0008003000000041001300DC
:10040000270005006F00FF00FF00FF00FF00FF0056
:10041000FF00FF00FF00FF00FF00FF00FF00FF00E4
:10042000FF00FF00FF00FF00FF00FF00FF00FF00D4
:10043000FF00FF00FF00FF00FF007F004F004C00A7
:100440000F00010006000300010000000100000091
:100450000000000000008000800080008000980004
:10046000040000000000C000000010001000100098
:100470001000110011001100110033002100610073
:1004800001008100800002004200420002002600BC
:100490002600060004000400050015001F001F00D0
:1004A0001B0037007F007F007E007600660066003C
:1004B000660066006E006F007F00EE00FC00FD002D
:1004C000FF007C007800610061006100630067004C
:1004D0007F00FC00F800F0007000F000F000F10078
:1004E000E200C200070086008F008F009F009F007F
:1004F0003F003F007F00FF00FF00FF00FF00FF0004
:10050000FF00FF00FF00FF00FF00FF007F003F0033
:100510003F00BF00BF008F00BF008F008F00C300EF
:10052000C500E000E000F000F800D800C800E800D6
:10053000EC00F600DE00C700C700C300C300E10006
:10054000F100CF00E70002000200030003000D00ED
:100550000900300000000000000000000000000062
:100560000000000000000000800082000200040083
:100570000400080008000000000000000000000067
:100580000000080000000400040004002300120022
:100590000200810040004400200020000000020012
:1005A00002000000010002000C000C001F001A00F5
:1005B0001C000C005C0054007100730042004100FC
:1005C0000F003F00FF00FF00FE00FD00FD00FB00EC
:1005D000FB00FF00FF00FC00FC00F800FF00FF0034
:1005E000FF00FF00FF001F00FF00F800FA00FC0002
:1005F000FE00FF00FB00FF00FF00FF00FF00FD000A
:10060000FE00FF003F000F000400A6000B000900E1
:1006100028002800AA008A001A00180004000C0014
:100620000A000100010081002000200000001000ED
:100630000C008C008C0084008400840084008A00FC
:1006400088008800A000B100D000D800B800B80031
:10065000B800B000B00090009000880088008800CA
:100660008400800082008100A00080008000800063
:100670008200C200820082008200820082000200AA
:100680000200020040000000000000000000000026
:10069000000000000000000000008000C0004000DA
:1006A000200000000000010001009F001F00DF008B
:1006B000FF00FF00FF00FF00FF00FF009F00610040
:1006C000EC00F700FF00FF00C00077000700FF000C
:1006D000FF00FF00FF00FF00FF00FF001F001F00E2
:1006E00007000300010020000000010000000000DE
:1006F00000000000000000000100000000000000F9
:1007000000000000000010001000D10001000100F6
:100710008100010021001100D100890005000300C3
:100720000300010001000F000900610080000000CB
:1007300000000000800080008000810091008300A4
:1007400083000400050089008100C4004400C50046
:10075000A500A3001300130019000C000D000F00EA
:10076000070007000E00060006000E008E008E0037
:10077000CE004E002E002E001700170097008A00B2
:10078000DA00CE00E60066006200330012001200BC
:100790001E001D009B001300270007000700270014
:1007A000E600CC00EC00C900E900EC006E002F0070
:1007B0000F002700B70037001B0037003000300063
:1007C000240026002600660066004600C600C4001D
:1007D00084008400860086008600860006000600ED
:1007E0000E000E000D001C00300020001000B800AC
:1007F000A600B90031003200780058000900080056
:100800000C000C00040004000400020083004200FD
:10081000030023000100810081008100C000C000AE
:10082000C000C100610061006000200020001000D5
:1008300030003800180018001C001C000C000C00D0
:100840000E0006000600070003000300030003007B
:100850000300030003000700030003000100010080
:100860000000000000000000000004000000020082
:100870008100C100F00038001E00060000000100E9
:1008800000000C000C001C001A001C000C000400EE
:10089000000000000E000F001F007800F0000000B4
:1008A0000000000000000000000000000000000048
:1008B00000000000000009000100010007000F0017
:1008C0000E000C001800180038007C0038001B00D7
:1008D00009000000C000F000FC00FF00FC00F00078
:1008E000C000000003000F003F00FF00FF00FF00FA
:1008F0003F000F00030000000000000000000300A4
:100900000000000000000000200010007C00FE003D
:10091000C700C700E700FF00FE00FC00FC00FE006F
:10092000FF00FF00FF00FF00FE007C000000000051
:100930000100030007000F001F003F003F001F00E1
:100940000F00070003000100000000002400120057
:100950008000C000E000E000F000F000F800FE00C1
:10096000FF00FF00FE00F800F000F000E000E000F3
:10097000C0008000030007000F000F000F000F00F1
:100980008F00C700FF00FF00C7008F000F000F009F
:100990000F000F00070003004800120000000000D5
:1009A0000000000000007000F800FC00FC00FC00EB
:1009B000FC00F800700000000000000000000000D3
:1009C0003C007E00FF00FF00FF007E00FF00FF00F4
:1009D000FF00FF00FF00FF007E00FF00FF00FF00A0
:1009E0007E003C000000000000000000000000004D
:1009F0008100E700FF00FF00E70081000000000029
:100A000000000000000000000000000000000000E6
:100A100000000100010001000100010001000100CF
:100A20000100000000000000000000004800180065
:100A300000000000000000000000000000000000B6
:100A400080004000200090008800040002000100A7
:100A50000100020004008800900020004000800097
:100A60008000400020001000080004000200810007
:100A700081000200040009001100200040008000F5
:100A80008000400020001100090004000200010065
:100A90000100020004000800100020004000810056
:100AA0008100400020001000080004000200010046
:100AB0000000000000000000000000000000000036
:100AC000040004000F000B0009000F00600020006C
:100AD0000000000000000000000000000000000016
:100AE00000008000C000C000C000C0008000000006
:100AF00000000000C000C0000000C000C0000000F6
:100B000000000000000000000000000000000000E5
:100B10000000000000000000000000003C007E001B
:100B2000FF00C300A50099009900A500C300FF00C5
:100B3000FE00E000F000FF00F800FF00F800700089
:100B400000000000000000000000000000000000A5
:100B50000000000000000000000000000000000095
:100B6000000001000100010001000100010001007E
:100B7000010001000100010001000100000000006F
:100B80000000000000000000000000000000000065
:100B900010000800FC00020079000100010079004B
:100BA0000200FC003F0040008C00980098008C0080
:100BB00080007F0011241FBECFE5D8E0DEBFCDBF8F
:100BC00010E0A0E6B0E0E6E5F1E202C005900D928B
:100BD000A636B107D9F724E0A6E6B0E001C01D9221
:100BE000AC36B207E1F70E9440080C94A9100C94AF
:100BF0000000CF92DF92EF92FF920F931F93CF935B
:100C0000DF934A30510510F049E050E0FA01EE0F51
:100C1000FF1FEC5AFF4FE590F490C8EF00E010E0A2
:100C2000D82E6894CC24C3F8C80ED62FF70145916E
:100C300054916D2D083011058CF40DC021E0890F01
:100C40000E9461070F5F1F4F82E0E80EF11CCF5F2B
:100C5000C83061F707C08D2F902FF0CF6C2D8D2FEE
:100C60009C2FECCFDF91CF911F910F91FF90EF90D0
:100C7000DF90CF9008958F929F92AF92BF92CF92C4
:100C8000DF92EF92FF920F931F93CF93DF934B016D
:100C90005C01EA01209709F44BC09A0100E010E0E2
:100CA000ADECBCEC0E94F80F9C013695279536956B
:100CB0002795369527950F5F1F4F2115310581F731
:100CC000000F111F000F111F000F111FC801880D09
:100CD000991D6C0175019E01ADECBCEC0E94F80FF2
:100CE0009695879596958795969587959C01220F61
:100CF000331F880F991F880F991F880F991F820F24
:100D0000931FAE01481B590BC701B6010E94F9059C
:100D10009E01ADECBCEC0E94F80FEC01D695C79596
:100D2000D695C795D695C79508501109209771F6A5
:100D3000DF91CF911F910F91FF90EF90DF90CF90B7
:100D4000BF90AF909F908F90089584EA86BF06B6BB
:100D500007FEFDCF089584E986BF06B604FCFDCFEB
:100D6000089583B984E886BF06B607FEFDCF0895CF
:100D7000CF93C82F0E94A50688E70E94B10680E89D
:100D80000E94B1068C2F0E94B1060E94AB06CF9143
:100D900008958CE080B911B88EEA0E94B80685EDFE
:100DA0000E94B80680E80E94B80688EA0E94B80649
:100DB0008FE30E94B80683ED0E94B80680E00E948F
:100DC000B80680E40E94B8068DE80E94B80684E167
:100DD0000E94B80680E20E94B80680E00E94B80631
:100DE00081EA0E94B80688EC0E94B8068AED0E944B
:100DF000B80682E10E94B80681E80E94B8068FEC2E
:100E00000E94B80689ED0E94B80681EF0E94B806DC
:100E10008BED0E94B80680E40E94B80684EA0E9426
:100E2000B80686EA0E94B8068FEA0E94B80681E2F8
:100E30000E94B80680E00E94B8068FE70E94B806BC
:100E400082E20E94B80680E00E94B80687E00E9415
:100E5000B806089580E094E0E6E6F0E0DF019C014A
:100E60001D9221503040E1F70895EF92FF920F93C9
:100E70001F93CF93DF930E94A50688E70E94B106D7
:100E800080E40E94B106C6E6D0E00F2EF6E6EF2E13
:100E9000F4E0FF2EF02D8E0100581F4F89910E9423
:100EA000B106C017D107D1F7E801E016F10699F7AE
:100EB0000E94AB06DF91CF911F910F91FF90EF90B1
:100EC0000895CF93DF9388230CF47CC0603408F03E
:100ED00079C0E62FF0E0F595E795F595E795F5955E
:100EE000E795E830F1050CF06DC06770A62FB0E013
:100EF000EA0102C0CC0FDD1F6A95E2F7BE01222392
:100F000091F090E0EF01D695DC2FCC27D795C795CF
:100F1000CA59DF4FC80FD91F2881622B6883E73079
:100F2000F105FCF04FC090E0EF01D695DC2FCC2707
:100F3000D795C795CA59DF4FC80FD91F609528812B
:100F400062236883E730F10524F13CC0F695FE2F5B
:100F5000EE27F795E795EA59FF4FE80FF91F408311
:100F600031C0A095B095A770BB273196119602C0ED
:100F700055954795AA95E2F7DF01B695BA2FAA27AE
:100F8000B795A795AA59BF4FA80FB91F2C91422B0F
:100F9000DDCFA095B095A770BB273196119602C002
:100FA00055954795AA95E2F74095DF01B695BA2F7A
:100FB000AA27B795A795AA59BF4FA80FB91F2C917B
:100FC0004223C4CFDF91CF9108951F920F920FB6A5
:100FD0000F9211248F939F931DBC1CBC81E090E065
:100FE00090936500809364009BB382E089278BBB5C
:100FF0009F918F910F900FBE0F901F9018951F9289
:101000000F920FB60F9211242F933F934F935F933C
:101010008F939F93EF93FF9312BEE6E6F4E020E0F8
:1010200030E086B390E0022E02C0959587950A9431
:10103000E2F780FF0CC080819181019691838083CB
:10104000AC014F7355274730510524F406C0118277
:10105000108203C08068918380832F5F3F4F329658
:1010600023303105F1F6FF91EF919F918F915F91C0
:101070004F913F912F910F900FBE0F901F90189599
:10108000CF93DF93CDB7DEB7CC55D1400FB6F894F0
:10109000DEBF0FBECDBF8FEF8ABB1BBA87B38F7188
:1010A00087BB8BB38F718BBB8EB584608EBD89B7C8
:1010B000806189BF80ED97E09BBD8ABD83B7856065
:1010C00083BF89B7816089BF0E94C906CE0101969E
:1010D0000E942A0C7894EE24E394F12C11E0809184
:1010E000640090916500892B09F442C00E942A0790
:1010F000109265001092640066E674E0CE010196DD
:101100000E94930E89819A81892B81F1F09265006A
:10111000E0926400CB80DC800E942A07812C912C15
:10112000A12CB12CA601C501B4010E943B060E946E
:1011300035072FEF83ED90E3215080409040E1F799
:1011400000C00000CE0181559F4F0E942A0C8EEAFC
:10115000FE01E155FF4FDE01119601900D928A9537
:10116000E1F7CE0181559F4F0E94BD0F0E943507C8
:101170008BB381278BBBB3CFFC01138612860895F6
:10118000AF92BF92CF92DF92EF92FF920F931F9395
:10119000CF93DF937C01DC011896ED91FC911997B8
:1011A000EE0FFF1FE855FE4F25913491F901C590D0
:1011B000D490F901329605911491FC0115830483B2
:1011C000C601B8010E94C20F61507109069FE0017B
:1011D000079FD00D169FD00D1124CC15DD059CF571
:1011E0002296CC0FDD1FC20FD31FCC0CDD1C2C5F51
:1011F0003F4FC20ED31E00E010E0A0E0B0E041E09F
:1012000050E0FE0185919491FC0120E030E0CA019C
:10121000022E02C0880F991F0A94E2F78E239F23A3
:10122000009739F0A817B90724F489010F5F1F4F01
:10123000DC012F5F3F4F2830310549F72296CC154E
:10124000DD05F9F602C000E010E0600F711FD70164
:1012500017967C936E931697DF91CF911F910F9104
:10126000FF90EF90DF90CF90BF90AF900895FC017A
:101270001386128670E07187608711821082138254
:1012800012820E94C00808956F927F928F929F925F
:10129000AF92BF92CF92DF92EF92FF920F931F9384
:1012A000CF93DF93DC011896ED91FC911997EE0F27
:1012B000FF1FE855FE4F05911491F801C590D49099
:1012C000F801329625913491722E632E1C141D0460
:1012D00084F5862E942E5C010C5F1F4FC0E0D0E099
:1012E000E12CF12CF80125913491F901CE01672D03
:1012F000762D0E94C20F009729F4209719F0B8E0CC
:10130000EB0EF11CD5011A964D915C911B97452B64
:1013100019F0F901E095F09521E0AF01682D6E0D0F
:10132000890D0E94610721960E5F1F4FCC16DD06C6
:10133000C9F6DF91CF911F910F91FF90EF90DF9051
:10134000CF90BF90AF909F908F907F906F900895B7
:101350000895AF92BF92CF92DF92EF92FF920F93D8
:101360001F93CF93DF93CDB7DEB72C970FB6F894CA
:10137000DEBF0FBECDBF5C01C982DA82EB82FC8288
:101380000D831E832F83388749875A876B877C8715
:1013900000E010E0F801EE0FFF1FEE0FFF1FEA0D57
:1013A000FB1D4281538164817581CE0101960E94AB
:1013B00044090F5F1F4F0430110561F72C960FB6DB
:1013C000F894DEBF0FBECDBFDF91CF911F910F917B
:1013D000FF90EF90DF90CF90BF90AF900895EF9285
:1013E000FF920F931F93CF93DF93EC01161617060E
:1013F0001CF4288D398D05C0288D398D31952195A6
:1014000031097901EE0CFF1CDE018E01005F1F4FD8
:10141000FE0180E490E0821B930B161617065CF425
:1014200044815581420F531F8417950724F4898105
:101430008460898311C077235CF4448155814E0D0B
:101440005F1D4217530724F489818260898304C099
:1014500034960E171F0709F7898181FD02C03323D7
:101460002CF082FD17C012161306A4F414968D9169
:101470009C911597820F931F15969C938E931497AA
:101480001496A017B10791F78C899D89280F391FF1
:101490003D8B2C8B8981897F8983DF91CF911F912F
:1014A0000F91FF90EF900895DC0156962D913C919D
:1014B000579780E890E0821B930B12962D913C91F8
:1014C00013972F5F3F4F821793075CF0FD01AD012B
:1014D000445F5F4F268137812F5F3F4F821793070D
:1014E00044F411968C911197816011968C93119709
:1014F00004C03496E417F50769F711968C9111979B
:1015000080FD1FC0FD019D01205F3F4F82819381BF
:101510000196938382833496E217F307B9F75296C4
:101520008D919C915397019653969C938E935297CD
:101530005A968D919C915B9701965B969C938E93A6
:101540005A9708958F929F92AF92BF92CF92DF9257
:10155000EF92FF920F931F93CF93DF93FC01A18132
:10156000B0E0B695A795AC70BB271296A80FB91F2F
:101570000D911C91119712964D915C91139780815A
:10158000823008F467C0853009F46AC0DF017F014A
:1015900080E1E80EF11C99249394812CAA24AA944A
:1015A000BB24BA94ED0114966D917C911597641744
:1015B000750719F08A2D9B2D02C0892D982D2A813F
:1015C0003B816801C21AD30A9601289F6001299FB6
:1015D000D00C389FD00C1124248935892C0D3D1D49
:1015E0006A01C61AD70AC89EB001C99E700DD89E5E
:1015F000700D112482899389680F791F7B836A8318
:101600003D832C831496AE15BF0561F629C0129652
:101610008D919C9113979801281B390B848995898A
:10162000820F931F14962D913C911597BA01621B5E
:10163000730B22893389260F371F13963C932E9301
:10164000129715969C938E9314971496AC17BD071A
:10165000F1F606C0853021F0DF01EF016096D7CFAB
:10166000DF91CF911F910F91FF90EF90DF90CF907E
:10167000BF90AF909F908F900895EF920F931F931C
:10168000FC018E2D538B428B758B648B068B178BD5
:10169000208F318F1182E0828430E9F453834283BA
:1016A00075836483CA01800F911F97838683718736
:1016B0006087DC01AA0FBB1FB387A2877587648789
:1016C000000F111F080F191F17870687718B608B7A
:1016D00080E18183B7C08230F1F453834283758304
:1016E0006483CA01800F911F978386837187608707
:1016F000C801880F991F840F951F9387828775876C
:10170000648797878687CB01820F931F918B808B8D
:1017100080E1818397C08330F1F4538342837583E2
:101720006483CA01800F911F9783868371876087C6
:10173000C801880F991F840F951F9387828775872B
:10174000648797878687CB01821B930B918B808B55
:1017500080E1818377C08530C9F4538342837583E8
:101760006483CA01800F911F978386837187608786
:10177000CB01820F931F5387428795878487420F3F
:10178000531F57874687918B808B5CC0E1101DC02B
:101790005383428375836483DA01A00FB11FB7833B
:1017A000A68371876087CB01820F931FB387A287BF
:1017B00095878487000F111F400F511F5787468759
:1017C000918B808B88E081833DC08130E9F4DB011F
:1017D000A20FB31F53834283B583A483CA01800F32
:1017E000911F97838683B187A087938782877587A8
:1017F0006487000F111F040F151F17870687718B51
:10180000608B88E081831EC08630E1F4CB01820FBB
:10181000931F5383428395838483DA01A00FB11F02
:10182000B783A68391878087B387A28775876487EC
:10183000000F111F400F511F57874687918B808BD8
:1018400088E08183CF010E94A20A1F910F91EF903F
:1018500008950895CF92DF92EF92FF920F931F9316
:10186000CF93DF93CDB7DEB7A8970FB6F894DEBF5E
:101870000FBECDBF8C01FC01349680E8DF011D92C4
:101880008A95E9F76801B4E8CB0ED11CC6010E9425
:10189000A8097801E0EAEE0EF11CC7010E94BC081D
:1018A000D8011D921C9262E0CE014D960E9437092C
:1018B0008CE0FE017D96D70101900D928A95E1F7AB
:1018C000F801EC55FF4F008111812281338168942A
:1018D000EE24E2F840E050E06CE170E0CE010196C9
:1018E0000E943D0B8CE1FE013196D60101900D92D4
:1018F0008A95E1F7CE0101960E94290CC6010E944B
:10190000A20AA8960FB6F894DEBF0FBECDBFDF9136
:10191000CF911F910F91FF90EF90DF90CF9008959E
:101920002F923F924F925F926F927F928F929F92EF
:10193000AF92BF92CF92DF92EF92FF920F931F93DD
:10194000CF93DF93CDB7DEB760970FB6F894DEBFC5
:101950000FBECDBF3C012C0124E0420E511C1E8263
:101960001D828C559F4F98878F83D301AA55BF4FF7
:10197000BA87A9871301B6E92B0E311C4301E5E8AC
:101980008E0E911C930120563F4F3C872B87AD80D4
:10199000BE80BB201CF43FEFA31AB30AB594A794F2
:1019A000AA0CBB1CAA0CBB1CED80FE8081E0E822C7
:1019B00080E8F822FF2054F491E0E91AF108AEEF34
:1019C000EA2AFF24FA94BFEFEB1AFB0AEE0CFF1C85
:1019D000EE0CFF1CEE0CFF1CEE0CFF1CEE0CFF1CB3
:1019E000C12CD12CF201808191810C2C02C09595E3
:1019F00087950A94E2F780FF49C08701BA82A982DD
:101A0000FC82EB82AF81B8858D919C91B501681BFA
:101A1000790BE985FA8580819181D701A80FB91FDB
:101A2000A701481B590BF301EA57FF4FB88BAF874B
:101A30005E874D8742815381808191819C01237013
:101A40003078332334F4215031092C6F3F6F2F5FEE
:101A50003F4F821B930B6817790721F40417150772
:101A6000F1F52EC06817790729F42D853E852417D6
:101A7000350781F134962E163F06E1F649815A81E9
:101A80006B817C818B859C850E9444093FEFC31A42
:101A9000D30A84E0E80EF11C98E0C916D10409F0DD
:101AA000A1CFAD81BE811196BE83AD83B2E04B0E56
:101AB000511CED81FE81E034F10509F068CF15C0BD
:101AC000D4018C9181608C930AC0D4018C91826086
:101AD0008C93CBCFD4018C9184608C93CBCF2F850A
:101AE00038892417350709F6F0CF60960FB6F894B9
:101AF000DEBF0FBECDBFDF91CF911F910F91FF9041
:101B0000EF90DF90CF90BF90AF909F908F907F909D
:101B10006F905F904F903F902F9008956F927F92BB
:101B20008F929F92AF92BF92CF92DF92EF92FF92ED
:101B30000F931F93CF93DF933C0124E0620E711C3F
:101B4000A12CB12C7C01E6E9EE0EF11CE501BB20D5
:101B50000CF42196D595C795CC0FDD1FCC0FDD1F5A
:101B6000F301C190D1903F01D501A170B078BB23A2
:101B700024F41197AE6FBF6F1196AA0FBB1FAA0F67
:101B8000BB1FAA0FBB1FAA0FBB1FAA0FBB1F60E082
:101B900070E09601062E02C0359527950A94E2F76B
:101BA00020FF1CC04D01FC01EA57FF4F0281138149
:101BB00020813181A90143705078552334F441507C
:101BC00051094C6F5F6F4F5F5F4F241B350BC2177E
:101BD000D307C1F480169106A9F411C06F5F7F4F3F
:101BE000149668307105A9F6FFEFAF1ABF0A20E41A
:101BF000A216B10409F0AACF80E090E008C081E00D
:101C000090E005C03496EE15FF0581F6E7CFDF9131
:101C1000CF911F910F91FF90EF90DF90CF90BF90E9
:101C2000AF909F908F907F906F9008956F927F926A
:101C30008F929F92AF92BF92CF92DF92EF92FF92DC
:101C40000F931F93CF93DF9300E010E00F2EFEE37E
:101C5000CF2ED12CF02D6EE370E099249394812C3B
:101C6000A12CB12C04C077230CF44EC06B0196015B
:101C70002E5F3F4F62177307CCF5FB013296EE0FD4
:101C8000FF1FE80FF91FA801440F551F9B01241BDC
:101C9000350BD901AA0FBB1FA80FB91FE601229669
:101CA000C41BD50B692C782C0115110571F0332359
:101CB0003CF01496ED90FC901597F182E08205C0FF
:101CC000118210826A2C7B2C08C0E080F1804FEFDB
:101CD000E416F10411F06A2C7B2C32962F5F3F4FF3
:101CE00012962C173D0701F7672851F00F5F1F4F21
:101CF000FC01228133812F5F3F4F33832283B3CF97
:101D0000B60162507109AFCFDF91CF911F910F9152
:101D1000FF90EF90DF90CF90BF90AF909F908F900B
:101D20007F906F900895AF92BF92CF92DF92EF9223
:101D3000FF920F931F93CF93DF93CDB7DEB7E89752
:101D40000FB6F894DEBF0FBECDBF6C018B010E94B1
:101D5000900CF601EB57FF4F808180FF7BC0D601CE
:101D6000AA57BF4FA6014A565F4F21E030E000E07E
:101D700010E012966D917C911397ED91FC91119763
:101D8000FF230CF43396F595E795F595E795EE0F5F
:101D9000FF1FC9016032710514F4802F912FE80FE5
:101DA000F91FEE0FFF1FEC0DFD1DCB0199230CF465
:101DB0000396959587959595879587709078992343
:101DC00024F40197886F9F6F0196B90102C0660FD6
:101DD000771F8A95E2F7CB0164817581862B972B5B
:101DE000958384831496A417B50719F6C6010E943B
:101DF000160EF601E256FF4F80819181892B29F45E
:101E000081E090E0F601918380830E94671067E093
:101E100070E00E94C20FF601EC55FF4F0081118166
:101E200022813381E82E40E050E060E270E0CE0194
:101E300001960E943D0BD601AC57BF4F8CE1FE01CD
:101E4000319601900D928A95E1F7CE0101960E949C
:101E5000290C82C05601F4E8AF0EB11CC5010E94E6
:101E6000540AF8018481958187FF10C08F739927E8
:101E7000049764F061E070E0C5010E94EF09F80189
:101E800084819581807C992795838483F801808162
:101E9000918187FF10C08F739927049764F06FEFCB
:101EA0007FEFC5010E94EF09F80180819181807C5C
:101EB000992791838083F8018281938187FF25C0D0
:101EC00086FD23C08064938382838CE1F601EC5706
:101ED000FF4FDE015D9601900D928A95E1F7C501F5
:101EE0000E94A20AC6010E948E0D892B51F08CE13E
:101EF000FE017D96D601AC57BF4F01900D928A9599
:101F0000E1F7CE014D960E94290CD601A056BF4F95
:101F1000CC901196DC9011971296EC901297139634
:101F2000FC90139714960C91149715961C91159785
:101F300016962C91169717963C91179718964C91D8
:101F4000189719965C9119971A966C911A971B9687
:101F50007C91C5010E94A909E8960FB6F894DEBFEE
:101F60000FBECDBFDF91CF911F910F91FF90EF90EA
:101F7000DF90CF90BF90AF9008958C579F4F0E94F5
:101F8000290C089597FB072E16F4009407D077FDCF
:101F900009D00E94071007FC05D03EF4909581956A
:101FA0009F4F0895709561957F4F0895A1E21A2E75
:101FB000AA1BBB1BFD010DC0AA1FBB1FEE1FFF1FED
:101FC000A217B307E407F50720F0A21BB30BE40B3D
:101FD000F50B661F771F881F991F1A9469F7609584
:101FE0007095809590959B01AC01BD01CF0108953E
:101FF000A29FB001B39FC001A39F700D811D11244A
:10200000911DB29F700D811D1124911D0895AA1B71
:10201000BB1B51E107C0AA1FBB1FA617B70710F0D3
:10202000A61BB70B881F991F5A95A9F78095909505
:10203000BC01CD0108958F929F92AF92BF92CF9233
:10204000DF92EF92FF92CF93DF93EC016881798169
:102050008A819B81611571058105910521F464E2F6
:1020600079ED8BE597E02DE133EF41E050E00E9400
:10207000771049015A019B01AC01A7EAB1E40E9423
:1020800096106B017C01ACEEB4EFA50194010E94A7
:10209000A410DC01CB018C0D9D1DAE1DBF1DB7FF33
:1020A00003C00197A109B04888839983AA83BB83A1
:1020B0009F77DF91CF91FF90EF90DF90CF90BF900F
:1020C000AF909F908F9008950E941B10089580E616
:1020D00090E00E941B100895A0E0B0E080936000A3
:1020E00090936100A0936200B09363000895052E61
:1020F00097FB1EF400940E948E1057FD07D00E949B
:10210000D60F07FC03D04EF40C948E1050954095DA
:10211000309521953F4F4F4F5F4F08959095809593
:10212000709561957F4F8F4F9F4F08950E94F80FD4
:10213000A59F900DB49F900DA49F800D911D11241B
:102140000895B7FF0C9496100E949610821B930B73
:062150000895F894FFCF92
:0621560001000000010081
:00000001FF
